{
  "contractName": "PaymentProcessor",
  "abi": [
    {
      "inputs": [],
      "stateMutability": "nonpayable",
      "type": "constructor"
    },
    {
      "anonymous": false,
      "inputs": [
        {
          "indexed": false,
          "internalType": "address",
          "name": "payer",
          "type": "address"
        },
        {
          "indexed": false,
          "internalType": "uint256",
          "name": "date",
          "type": "uint256"
        }
      ],
      "name": "FallBackEvent",
      "type": "event"
    },
    {
      "anonymous": false,
      "inputs": [
        {
          "indexed": false,
          "internalType": "address",
          "name": "payer",
          "type": "address"
        },
        {
          "indexed": false,
          "internalType": "uint256",
          "name": "paymentId",
          "type": "uint256"
        },
        {
          "indexed": false,
          "internalType": "uint256",
          "name": "date",
          "type": "uint256"
        }
      ],
      "name": "PaymentDone",
      "type": "event"
    },
    {
      "anonymous": false,
      "inputs": [
        {
          "indexed": false,
          "internalType": "address",
          "name": "payer",
          "type": "address"
        },
        {
          "indexed": false,
          "internalType": "uint256",
          "name": "date",
          "type": "uint256"
        }
      ],
      "name": "ReceiveEvent",
      "type": "event"
    },
    {
      "stateMutability": "payable",
      "type": "fallback",
      "payable": true
    },
    {
      "inputs": [],
      "name": "owner",
      "outputs": [
        {
          "internalType": "address",
          "name": "",
          "type": "address"
        }
      ],
      "stateMutability": "view",
      "type": "function",
      "constant": true
    },
    {
      "inputs": [
        {
          "internalType": "uint256",
          "name": "",
          "type": "uint256"
        }
      ],
      "name": "players",
      "outputs": [
        {
          "internalType": "address payable",
          "name": "",
          "type": "address"
        }
      ],
      "stateMutability": "view",
      "type": "function",
      "constant": true
    },
    {
      "stateMutability": "payable",
      "type": "receive",
      "payable": true
    },
    {
      "inputs": [],
      "name": "getBalance",
      "outputs": [
        {
          "internalType": "uint256",
          "name": "",
          "type": "uint256"
        }
      ],
      "stateMutability": "view",
      "type": "function",
      "constant": true
    },
    {
      "inputs": [
        {
          "internalType": "uint256",
          "name": "paymentId",
          "type": "uint256"
        }
      ],
      "name": "pay",
      "outputs": [],
      "stateMutability": "payable",
      "type": "function",
      "payable": true
    }
  ],
  "bytecode": "0x608060405234801561001057600080fd5b50336000806101000a81548173ffffffffffffffffffffffffffffffffffffffff021916908373ffffffffffffffffffffffffffffffffffffffff16021790555061048e806100606000396000f3fe6080604052600436106100435760003560e01c806312065fe0146100fa5780638da5cb5b14610125578063c290d69114610150578063f71d96cb1461016c576100bf565b366100bf577fcc85d09d309785db93d6df19917f2e6cc07fe27cd01c08c8279145deb5cf452633426040516100799291906102ac565b60405180910390a17fbebec2d19ea8d9e88190609292a424056d54cc57eedf2d75737cedee4fa2938b336002426040516100b59392919061031a565b60405180910390a1005b7f836f9cb036a9f6697bf0250d3028addb4e751c3a4c721a27469125847dd3e7d133426040516100f09291906102ac565b60405180910390a1005b34801561010657600080fd5b5061010f6101a9565b60405161011c9190610351565b60405180910390f35b34801561013157600080fd5b5061013a6101b1565b604051610147919061036c565b60405180910390f35b61016a600480360381019061016591906103b8565b6101d5565b005b34801561017857600080fd5b50610193600480360381019061018e91906103b8565b610213565b6040516101a09190610406565b60405180910390f35b600047905090565b60008054906101000a900473ffffffffffffffffffffffffffffffffffffffff1681565b7fbebec2d19ea8d9e88190609292a424056d54cc57eedf2d75737cedee4fa2938b33824260405161020893929190610421565b60405180910390a150565b6001818154811061022357600080fd5b906000526020600020016000915054906101000a900473ffffffffffffffffffffffffffffffffffffffff1681565b600073ffffffffffffffffffffffffffffffffffffffff82169050919050565b600061027d82610252565b9050919050565b61028d81610272565b82525050565b6000819050919050565b6102a681610293565b82525050565b60006040820190506102c16000830185610284565b6102ce602083018461029d565b9392505050565b6000819050919050565b6000819050919050565b60006103046102ff6102fa846102d5565b6102df565b610293565b9050919050565b610314816102e9565b82525050565b600060608201905061032f6000830186610284565b61033c602083018561030b565b610349604083018461029d565b949350505050565b6000602082019050610366600083018461029d565b92915050565b60006020820190506103816000830184610284565b92915050565b600080fd5b61039581610293565b81146103a057600080fd5b50565b6000813590506103b28161038c565b92915050565b6000602082840312156103ce576103cd610387565b5b60006103dc848285016103a3565b91505092915050565b60006103f082610252565b9050919050565b610400816103e5565b82525050565b600060208201905061041b60008301846103f7565b92915050565b60006060820190506104366000830186610284565b610443602083018561029d565b610450604083018461029d565b94935050505056fea2646970667358221220a8e389aa019802f87884a34c331966d4e13e6494d23456aaf129ef3e887aea6864736f6c63430008090033",
  "immutableReferences": {},
  "source": "// SPDX-License-Identifier: MIT\npragma solidity >=0.4.22 <0.9.0;\n\ncontract PaymentProcessor {\n    address public owner;\n    address payable[] public players;\n\n    event PaymentDone(\n        address payer,\n        uint paymentId,\n        uint date\n    );\n\n    event FallBackEvent(\n        address payer,\n        uint date\n    );\n\n    event ReceiveEvent(\n        address payer,\n        uint date\n    );\n\n\n\n    constructor() public {\n        owner = msg.sender;\n    }\n\n    function getBalance() public view returns (uint256) {\n        return address(this).balance;\n    }\n\n    function pay(uint paymentId) public payable {\n//        require(msg.value > .01 ether);\n\n        emit PaymentDone(msg.sender, paymentId, block.timestamp);\n    }\n\n    fallback() external payable {\n        // custom function code\n        emit FallBackEvent(msg.sender, block.timestamp);\n    }\n\n    receive() external payable {\n        // custom function code\n        emit ReceiveEvent(msg.sender, block.timestamp);\n        emit PaymentDone(msg.sender, 2, block.timestamp);\n    }\n}",
  "sourcePath": "/home/user/WebstormProjects/crypto-shop-wp/blockchain-v2/contracts/PaymentProcessor.sol",
  "compiler": {
    "name": "solc",
    "version": "0.8.9+commit.e5eed63a.Emscripten.clang"
  },
  "schemaVersion": "3.4.3",
  "updatedAt": "2022-05-30T08:21:15.255Z",
  "networkType": "ethereum",
  "devdoc": {
    "kind": "dev",
    "methods": {},
    "version": 1
  },
  "userdoc": {
    "kind": "user",
    "methods": {},
    "version": 1
  }
}