{
  "contractName": "PaymentProcessor",
  "abi": [
    {
      "inputs": [],
      "stateMutability": "nonpayable",
      "type": "constructor"
    },
    {
      "anonymous": false,
      "inputs": [
        {
          "indexed": false,
          "internalType": "address",
          "name": "payer",
          "type": "address"
        },
        {
          "indexed": false,
          "internalType": "uint256",
          "name": "paymentId",
          "type": "uint256"
        },
        {
          "indexed": false,
          "internalType": "uint256",
          "name": "date",
          "type": "uint256"
        }
      ],
      "name": "PaymentDone",
      "type": "event"
    },
    {
      "inputs": [],
      "name": "owner",
      "outputs": [
        {
          "internalType": "address",
          "name": "",
          "type": "address"
        }
      ],
      "stateMutability": "view",
      "type": "function",
      "constant": true
    },
    {
      "inputs": [
        {
          "internalType": "uint256",
          "name": "",
          "type": "uint256"
        }
      ],
      "name": "players",
      "outputs": [
        {
          "internalType": "address payable",
          "name": "",
          "type": "address"
        }
      ],
      "stateMutability": "view",
      "type": "function",
      "constant": true
    },
    {
      "inputs": [],
      "name": "getBalance",
      "outputs": [
        {
          "internalType": "uint256",
          "name": "",
          "type": "uint256"
        }
      ],
      "stateMutability": "view",
      "type": "function",
      "constant": true
    },
    {
      "inputs": [
        {
          "internalType": "uint256",
          "name": "paymentId",
          "type": "uint256"
        }
      ],
      "name": "pay",
      "outputs": [],
      "stateMutability": "payable",
      "type": "function",
      "payable": true
    }
  ],
  "bytecode": "0x608060405234801561001057600080fd5b50336000806101000a81548173ffffffffffffffffffffffffffffffffffffffff021916908373ffffffffffffffffffffffffffffffffffffffff160217905550610333806100606000396000f3fe60806040526004361061003f5760003560e01c806312065fe0146100445780638da5cb5b1461006f578063c290d6911461009a578063f71d96cb146100b6575b600080fd5b34801561005057600080fd5b506100596100f3565b60405161006691906101b5565b60405180910390f35b34801561007b57600080fd5b506100846100fb565b6040516100919190610211565b60405180910390f35b6100b460048036038101906100af919061025d565b61011f565b005b3480156100c257600080fd5b506100dd60048036038101906100d8919061025d565b61015d565b6040516100ea91906102ab565b60405180910390f35b600047905090565b60008054906101000a900473ffffffffffffffffffffffffffffffffffffffff1681565b7fbebec2d19ea8d9e88190609292a424056d54cc57eedf2d75737cedee4fa2938b338242604051610152939291906102c6565b60405180910390a150565b6001818154811061016d57600080fd5b906000526020600020016000915054906101000a900473ffffffffffffffffffffffffffffffffffffffff1681565b6000819050919050565b6101af8161019c565b82525050565b60006020820190506101ca60008301846101a6565b92915050565b600073ffffffffffffffffffffffffffffffffffffffff82169050919050565b60006101fb826101d0565b9050919050565b61020b816101f0565b82525050565b60006020820190506102266000830184610202565b92915050565b600080fd5b61023a8161019c565b811461024557600080fd5b50565b60008135905061025781610231565b92915050565b6000602082840312156102735761027261022c565b5b600061028184828501610248565b91505092915050565b6000610295826101d0565b9050919050565b6102a58161028a565b82525050565b60006020820190506102c0600083018461029c565b92915050565b60006060820190506102db6000830186610202565b6102e860208301856101a6565b6102f560408301846101a6565b94935050505056fea2646970667358221220fd7cf784790d7a3f547f02fda999378ece3735a9792651c4f7ec7773d401290564736f6c63430008090033",
  "immutableReferences": {},
  "source": "// SPDX-License-Identifier: MIT\npragma solidity >=0.4.22 <0.9.0;\n\ncontract PaymentProcessor {\n    address public owner;\n    address payable[] public players;\n\n    event PaymentDone(\n        address payer,\n        uint paymentId,\n        uint date\n    );\n\n    constructor() public {\n        owner = msg.sender;\n    }\n\n    function getBalance() public view returns (uint256) {\n        return address(this).balance;\n    }\n\n    function pay(uint paymentId) public payable {\n//        require(msg.value > .01 ether);\n\n        emit PaymentDone(msg.sender, paymentId, block.timestamp);\n    }\n}",
  "sourcePath": "/home/user/WebstormProjects/crypto-shop-wp/blockchain-v2/contracts/PaymentProcessor.sol",
  "compiler": {
    "name": "solc",
    "version": "0.8.9+commit.e5eed63a.Emscripten.clang"
  },
  "schemaVersion": "3.4.3",
  "updatedAt": "2022-05-27T08:39:32.044Z",
  "networkType": "ethereum",
  "devdoc": {
    "kind": "dev",
    "methods": {},
    "version": 1
  },
  "userdoc": {
    "kind": "user",
    "methods": {},
    "version": 1
  }
}