{
  "contractName": "PaymentProcessor",
  "abi": [
    {
      "inputs": [],
      "stateMutability": "nonpayable",
      "type": "constructor"
    },
    {
      "anonymous": false,
      "inputs": [
        {
          "indexed": false,
          "internalType": "address",
          "name": "payer",
          "type": "address"
        },
        {
          "indexed": false,
          "internalType": "uint256",
          "name": "amount",
          "type": "uint256"
        },
        {
          "indexed": false,
          "internalType": "uint256",
          "name": "paymentId",
          "type": "uint256"
        },
        {
          "indexed": false,
          "internalType": "uint256",
          "name": "date",
          "type": "uint256"
        }
      ],
      "name": "PaymentDone",
      "type": "event"
    },
    {
      "inputs": [],
      "name": "owner",
      "outputs": [
        {
          "internalType": "address",
          "name": "",
          "type": "address"
        }
      ],
      "stateMutability": "view",
      "type": "function",
      "constant": true
    },
    {
      "inputs": [
        {
          "internalType": "uint256",
          "name": "",
          "type": "uint256"
        }
      ],
      "name": "players",
      "outputs": [
        {
          "internalType": "address payable",
          "name": "",
          "type": "address"
        }
      ],
      "stateMutability": "view",
      "type": "function",
      "constant": true
    },
    {
      "inputs": [],
      "name": "getBalance",
      "outputs": [
        {
          "internalType": "uint256",
          "name": "",
          "type": "uint256"
        }
      ],
      "stateMutability": "view",
      "type": "function",
      "constant": true
    },
    {
      "inputs": [
        {
          "internalType": "uint256",
          "name": "amount",
          "type": "uint256"
        },
        {
          "internalType": "uint256",
          "name": "paymentId",
          "type": "uint256"
        }
      ],
      "name": "pay",
      "outputs": [],
      "stateMutability": "payable",
      "type": "function",
      "payable": true
    }
  ],
  "bytecode": "0x608060405234801561001057600080fd5b50336000806101000a81548173ffffffffffffffffffffffffffffffffffffffff021916908373ffffffffffffffffffffffffffffffffffffffff160217905550610384806100606000396000f3fe60806040526004361061003f5760003560e01c806312065fe0146100445780638da5cb5b1461006f578063ef48eee61461009a578063f71d96cb146100b6575b600080fd5b34801561005057600080fd5b506100596100f3565b60405161006691906101b8565b60405180910390f35b34801561007b57600080fd5b506100846100fb565b6040516100919190610214565b60405180910390f35b6100b460048036038101906100af9190610260565b61011f565b005b3480156100c257600080fd5b506100dd60048036038101906100d891906102a0565b610160565b6040516100ea91906102ee565b60405180910390f35b600047905090565b60008054906101000a900473ffffffffffffffffffffffffffffffffffffffff1681565b7f78eaebe37a28490ff43ed0e95bdc47de1587156ac0069b652e1d2d9f42464e98338383426040516101549493929190610309565b60405180910390a15050565b6001818154811061017057600080fd5b906000526020600020016000915054906101000a900473ffffffffffffffffffffffffffffffffffffffff1681565b6000819050919050565b6101b28161019f565b82525050565b60006020820190506101cd60008301846101a9565b92915050565b600073ffffffffffffffffffffffffffffffffffffffff82169050919050565b60006101fe826101d3565b9050919050565b61020e816101f3565b82525050565b60006020820190506102296000830184610205565b92915050565b600080fd5b61023d8161019f565b811461024857600080fd5b50565b60008135905061025a81610234565b92915050565b600080604083850312156102775761027661022f565b5b60006102858582860161024b565b92505060206102968582860161024b565b9150509250929050565b6000602082840312156102b6576102b561022f565b5b60006102c48482850161024b565b91505092915050565b60006102d8826101d3565b9050919050565b6102e8816102cd565b82525050565b600060208201905061030360008301846102df565b92915050565b600060808201905061031e6000830187610205565b61032b60208301866101a9565b61033860408301856101a9565b61034560608301846101a9565b9594505050505056fea2646970667358221220431d9555fdbf962a13f88e23abdd6b3177693c0ab9227dd4b5b83ddac2075ab864736f6c63430008090033",
  "immutableReferences": {},
  "source": "// SPDX-License-Identifier: MIT\npragma solidity >=0.4.22 <0.9.0;\n\ncontract PaymentProcessor {\n    address public owner;\n    address payable[] public players;\n\n    event PaymentDone(\n        address payer,\n        uint amount,\n        uint paymentId,\n        uint date\n    );\n\n    constructor() public {\n        owner = msg.sender;\n    }\n\n    function getBalance() public view returns (uint256) {\n        return address(this).balance;\n    }\n\n    function pay(uint amount, uint paymentId) public payable {\n//        require(msg.value > .01 ether);\n\n        emit PaymentDone(msg.sender, amount, paymentId, block.timestamp);\n    }\n}",
  "sourcePath": "/home/user/WebstormProjects/crypto-shop-wp/blockchain-v2/contracts/PaymentProcessor.sol",
  "compiler": {
    "name": "solc",
    "version": "0.8.9+commit.e5eed63a.Emscripten.clang"
  },
  "schemaVersion": "3.4.3",
  "updatedAt": "2022-05-26T12:48:54.087Z",
  "networkType": "ethereum",
  "devdoc": {
    "kind": "dev",
    "methods": {},
    "version": 1
  },
  "userdoc": {
    "kind": "user",
    "methods": {},
    "version": 1
  }
}