{
  "contractName": "PaymentProcessor",
  "abi": [
    {
      "inputs": [
        {
          "internalType": "address",
          "name": "adminAddress",
          "type": "address"
        },
        {
          "internalType": "address",
          "name": "daiAddress",
          "type": "address"
        }
      ],
      "stateMutability": "nonpayable",
      "type": "constructor"
    },
    {
      "anonymous": false,
      "inputs": [
        {
          "indexed": true,
          "internalType": "uint256",
          "name": "gameId",
          "type": "uint256"
        },
        {
          "indexed": false,
          "internalType": "uint256",
          "name": "currentWinId",
          "type": "uint256"
        }
      ],
      "name": "GameClose",
      "type": "event"
    },
    {
      "anonymous": false,
      "inputs": [
        {
          "indexed": true,
          "internalType": "uint256",
          "name": "gameId",
          "type": "uint256"
        },
        {
          "indexed": false,
          "internalType": "uint256",
          "name": "startTime",
          "type": "uint256"
        },
        {
          "indexed": false,
          "internalType": "uint256",
          "name": "endTime",
          "type": "uint256"
        },
        {
          "indexed": false,
          "internalType": "uint256[]",
          "name": "id",
          "type": "uint256[]"
        }
      ],
      "name": "GameOpen",
      "type": "event"
    },
    {
      "anonymous": false,
      "inputs": [
        {
          "indexed": false,
          "internalType": "address",
          "name": "payer",
          "type": "address"
        },
        {
          "indexed": false,
          "internalType": "uint256",
          "name": "amount",
          "type": "uint256"
        },
        {
          "indexed": false,
          "internalType": "uint256",
          "name": "paymentId",
          "type": "uint256"
        },
        {
          "indexed": false,
          "internalType": "uint256",
          "name": "date",
          "type": "uint256"
        }
      ],
      "name": "PaymentDone",
      "type": "event"
    },
    {
      "anonymous": false,
      "inputs": [
        {
          "indexed": false,
          "internalType": "address",
          "name": "payer",
          "type": "address"
        },
        {
          "indexed": false,
          "internalType": "uint256",
          "name": "amount",
          "type": "uint256"
        },
        {
          "indexed": false,
          "internalType": "uint256",
          "name": "codePay",
          "type": "uint256"
        }
      ],
      "name": "PaymentTest",
      "type": "event"
    },
    {
      "anonymous": false,
      "inputs": [
        {
          "indexed": false,
          "internalType": "address",
          "name": "payer",
          "type": "address"
        },
        {
          "indexed": false,
          "internalType": "address[]",
          "name": "users",
          "type": "address[]"
        },
        {
          "indexed": false,
          "internalType": "uint256",
          "name": "codePay",
          "type": "uint256"
        },
        {
          "indexed": false,
          "internalType": "address",
          "name": "admim",
          "type": "address"
        }
      ],
      "name": "UsersSend",
      "type": "event"
    },
    {
      "inputs": [],
      "name": "admin",
      "outputs": [
        {
          "internalType": "address",
          "name": "",
          "type": "address"
        }
      ],
      "stateMutability": "view",
      "type": "function",
      "constant": true
    },
    {
      "inputs": [],
      "name": "currentGameId",
      "outputs": [
        {
          "internalType": "uint256",
          "name": "",
          "type": "uint256"
        }
      ],
      "stateMutability": "view",
      "type": "function",
      "constant": true
    },
    {
      "inputs": [],
      "name": "currentWinId",
      "outputs": [
        {
          "internalType": "uint256",
          "name": "",
          "type": "uint256"
        }
      ],
      "stateMutability": "view",
      "type": "function",
      "constant": true
    },
    {
      "inputs": [],
      "name": "dai",
      "outputs": [
        {
          "internalType": "contract IERC20",
          "name": "",
          "type": "address"
        }
      ],
      "stateMutability": "view",
      "type": "function",
      "constant": true
    },
    {
      "inputs": [
        {
          "internalType": "uint256",
          "name": "amount",
          "type": "uint256"
        },
        {
          "internalType": "uint256",
          "name": "paymentId",
          "type": "uint256"
        }
      ],
      "name": "pay",
      "outputs": [],
      "stateMutability": "nonpayable",
      "type": "function"
    },
    {
      "inputs": [],
      "name": "clearContract",
      "outputs": [],
      "stateMutability": "nonpayable",
      "type": "function"
    },
    {
      "inputs": [
        {
          "internalType": "address",
          "name": "addressUser",
          "type": "address"
        }
      ],
      "name": "isUser",
      "outputs": [
        {
          "internalType": "bool",
          "name": "isIndeed",
          "type": "bool"
        }
      ],
      "stateMutability": "nonpayable",
      "type": "function"
    },
    {
      "inputs": [
        {
          "internalType": "uint256",
          "name": "_endTimeSec",
          "type": "uint256"
        }
      ],
      "name": "startGame",
      "outputs": [],
      "stateMutability": "nonpayable",
      "type": "function"
    },
    {
      "inputs": [
        {
          "internalType": "uint256",
          "name": "amount",
          "type": "uint256"
        },
        {
          "internalType": "uint256",
          "name": "idUser",
          "type": "uint256"
        }
      ],
      "name": "payGame",
      "outputs": [],
      "stateMutability": "nonpayable",
      "type": "function"
    },
    {
      "inputs": [],
      "name": "closeGame",
      "outputs": [],
      "stateMutability": "nonpayable",
      "type": "function"
    },
    {
      "inputs": [
        {
          "internalType": "uint256",
          "name": "amount",
          "type": "uint256"
        },
        {
          "internalType": "uint256",
          "name": "codePay",
          "type": "uint256"
        }
      ],
      "name": "saveUser",
      "outputs": [],
      "stateMutability": "nonpayable",
      "type": "function"
    },
    {
      "inputs": [],
      "name": "sendUsers",
      "outputs": [],
      "stateMutability": "nonpayable",
      "type": "function"
    }
  ],
  "bytecode": "0x608060405234801561001057600080fd5b5060405161169f38038061169f8339818101604052604081101561003357600080fd5b810190808051906020019092919080519060200190929190505050816000806101000a81548173ffffffffffffffffffffffffffffffffffffffff021916908373ffffffffffffffffffffffffffffffffffffffff16021790555080600160006101000a81548173ffffffffffffffffffffffffffffffffffffffff021916908373ffffffffffffffffffffffffffffffffffffffff16021790555050506115bf806100e06000396000f3fe608060405234801561001057600080fd5b50600436106100b45760003560e01c80638af3b288116100715780638af3b28814610189578063c40ca89a146101a7578063e5ed1d59146101df578063ef48eee61461020d578063f4b9fa7514610245578063f851a4401461028f576100b4565b8063061a3471146100b95780634209fff1146100f15780634b307f801461014d578063536a3ddc1461015757806369a8af3114610175578063786b844b1461017f575b600080fd5b6100ef600480360360408110156100cf57600080fd5b8101908080359060200190929190803590602001909291905050506102d9565b005b6101336004803603602081101561010757600080fd5b81019080803573ffffffffffffffffffffffffffffffffffffffff169060200190929190505050610557565b604051808215151515815260200191505060405180910390f35b610155610618565b005b61015f6106da565b6040518082815260200191505060405180910390f35b61017d6106e0565b005b610187610861565b005b610191610d24565b6040518082815260200191505060405180910390f35b6101dd600480360360408110156101bd57600080fd5b810190808035906020019092919080359060200190929190505050610d2a565b005b61020b600480360360208110156101f557600080fd5b810190808035906020019092919050505061104e565b005b6102436004803603604081101561022357600080fd5b8101908080359060200190929190803590602001909291905050506112f2565b005b61024d6114ab565b604051808273ffffffffffffffffffffffffffffffffffffffff1673ffffffffffffffffffffffffffffffffffffffff16815260200191505060405180910390f35b6102976114d1565b604051808273ffffffffffffffffffffffffffffffffffffffff1673ffffffffffffffffffffffffffffffffffffffff16815260200191505060405180910390f35b6102e233610557565b156102ec57610553565b33600760003373ffffffffffffffffffffffffffffffffffffffff1673ffffffffffffffffffffffffffffffffffffffff16815260200190815260200160002060000160006101000a81548173ffffffffffffffffffffffffffffffffffffffff021916908373ffffffffffffffffffffffffffffffffffffffff16021790555081600760003373ffffffffffffffffffffffffffffffffffffffff1673ffffffffffffffffffffffffffffffffffffffff1681526020019081526020016000206001018190555080600760003373ffffffffffffffffffffffffffffffffffffffff1673ffffffffffffffffffffffffffffffffffffffff1681526020019081526020016000206002018190555033600760003373ffffffffffffffffffffffffffffffffffffffff1673ffffffffffffffffffffffffffffffffffffffff16815260200190815260200160002060030160006101000a81548173ffffffffffffffffffffffffffffffffffffffff021916908373ffffffffffffffffffffffffffffffffffffffff1602179055506003339080600181540180825580915050600190039060005260206000200160009091909190916101000a81548173ffffffffffffffffffffffffffffffffffffffff021916908373ffffffffffffffffffffffffffffffffffffffff1602179055507fb3fb67edf1a81050f3b1a0136253558b80fac1c81c0327f4946b1760f0cfb4ee338383604051808473ffffffffffffffffffffffffffffffffffffffff1673ffffffffffffffffffffffffffffffffffffffff168152602001838152602001828152602001935050505060405180910390a15b5050565b600080600380549050141561056f5760009050610613565b8173ffffffffffffffffffffffffffffffffffffffff16600760008473ffffffffffffffffffffffffffffffffffffffff1673ffffffffffffffffffffffffffffffffffffffff16815260200190815260200160002060030160009054906101000a900473ffffffffffffffffffffffffffffffffffffffff1673ffffffffffffffffffffffffffffffffffffffff16141561060e5760019050610613565b600090505b919050565b600760003373ffffffffffffffffffffffffffffffffffffffff1673ffffffffffffffffffffffffffffffffffffffff168152602001908152602001600020600080820160006101000a81549073ffffffffffffffffffffffffffffffffffffffff0219169055600182016000905560028201600090556003820160006101000a81549073ffffffffffffffffffffffffffffffffffffffff02191690555050600360006106c691906114f6565b600560008154809291906001019190505550565b60055481565b7f2fc03ff262358e1d7791b3e40c296b3bb9e29bdc90d59380ecd1f001c9534023336003600760003373ffffffffffffffffffffffffffffffffffffffff1673ffffffffffffffffffffffffffffffffffffffff168152602001908152602001600020600201546000809054906101000a900473ffffffffffffffffffffffffffffffffffffffff16604051808573ffffffffffffffffffffffffffffffffffffffff1673ffffffffffffffffffffffffffffffffffffffff168152602001806020018481526020018373ffffffffffffffffffffffffffffffffffffffff1673ffffffffffffffffffffffffffffffffffffffff168152602001828103825285818154815260200191508054801561084e57602002820191906000526020600020905b8160009054906101000a900473ffffffffffffffffffffffffffffffffffffffff1673ffffffffffffffffffffffffffffffffffffffff1681526020019060010190808311610804575b50509550505050505060405180910390a1565b6001600381111561086e57fe5b60086000600554815260200190815260200160002060000160009054906101000a900460ff16600381111561089f57fe5b14610912576040517f08c379a000000000000000000000000000000000000000000000000000000000815260040180806020018281038252600d8152602001807f47616d65206e6f74206f70656e0000000000000000000000000000000000000081525060200191505060405180910390fd5b60086000600554815260200190815260200160002060020154421161099f576040517f08c379a000000000000000000000000000000000000000000000000000000000815260040180806020018281038252600d8152602001807f47616d65206e6f74206f7665720000000000000000000000000000000000000081525060200191505060405180910390fd5b600260086000600554815260200190815260200160002060000160006101000a81548160ff021916908360038111156109d457fe5b021790555063075bcd1560068190555060008090505b600480549050811015610ce55760065460048281548110610a0757fe5b906000526020600020906005020160020154148015610a45575060055460048281548110610a3157fe5b906000526020600020906005020160030154145b15610cd8576000600a606460048481548110610a5d57fe5b90600052602060002090600502016001015481610a7657fe5b040260048381548110610a8557fe5b906000526020600020906005020160010154019050600160009054906101000a900473ffffffffffffffffffffffffffffffffffffffff1673ffffffffffffffffffffffffffffffffffffffff1663095ea7b330836040518363ffffffff1660e01b8152600401808373ffffffffffffffffffffffffffffffffffffffff1673ffffffffffffffffffffffffffffffffffffffff16815260200182815260200192505050602060405180830381600087803b158015610b4357600080fd5b505af1158015610b57573d6000803e3d6000fd5b505050506040513d6020811015610b6d57600080fd5b810190808051906020019092919050505050600160009054906101000a900473ffffffffffffffffffffffffffffffffffffffff1673ffffffffffffffffffffffffffffffffffffffff166323b872dd3060048581548110610bcb57fe5b906000526020600020906005020160000160009054906101000a900473ffffffffffffffffffffffffffffffffffffffff16846040518463ffffffff1660e01b8152600401808473ffffffffffffffffffffffffffffffffffffffff1673ffffffffffffffffffffffffffffffffffffffff1681526020018373ffffffffffffffffffffffffffffffffffffffff1673ffffffffffffffffffffffffffffffffffffffff1681526020018281526020019350505050602060405180830381600087803b158015610c9a57600080fd5b505af1158015610cae573d6000803e3d6000fd5b505050506040513d6020811015610cc457600080fd5b810190808051906020019092919050505050505b80806001019150506109ea565b506005547fbc4716d830964ccfd56979f8db2b90aac13f8c6226b94895cda332e15e0c3a776006546040518082815260200191505060405180910390a2565b60065481565b60016003811115610d3757fe5b60086000600554815260200190815260200160002060000160009054906101000a900460ff166003811115610d6857fe5b14610ddb576040517f08c379a000000000000000000000000000000000000000000000000000000000815260040180806020018281038252600d8152602001807f47616d65206e6f74206f70656e0000000000000000000000000000000000000081525060200191505060405180910390fd5b600160009054906101000a900473ffffffffffffffffffffffffffffffffffffffff1673ffffffffffffffffffffffffffffffffffffffff166323b872dd3330856040518463ffffffff1660e01b8152600401808473ffffffffffffffffffffffffffffffffffffffff1673ffffffffffffffffffffffffffffffffffffffff1681526020018373ffffffffffffffffffffffffffffffffffffffff1673ffffffffffffffffffffffffffffffffffffffff1681526020018281526020019350505050602060405180830381600087803b158015610eb857600080fd5b505af1158015610ecc573d6000803e3d6000fd5b505050506040513d6020811015610ee257600080fd5b81019080805190602001909291905050505060046040518060a001604052803373ffffffffffffffffffffffffffffffffffffffff168152602001848152602001838152602001600554815260200142815250908060018154018082558091505060019003906000526020600020906005020160009091909190915060008201518160000160006101000a81548173ffffffffffffffffffffffffffffffffffffffff021916908373ffffffffffffffffffffffffffffffffffffffff1602179055506020820151816001015560408201518160020155606082015181600301556080820151816004015550507f78eaebe37a28490ff43ed0e95bdc47de1587156ac0069b652e1d2d9f42464e9833838342604051808573ffffffffffffffffffffffffffffffffffffffff1673ffffffffffffffffffffffffffffffffffffffff16815260200184815260200183815260200182815260200194505050505060405180910390a15050565b6000600554111561110b576002600381111561106657fe5b60086000600554815260200190815260200160002060000160009054906101000a900460ff16600381111561109757fe5b1461110a576040517f08c379a000000000000000000000000000000000000000000000000000000000815260040180806020018281038252600e8152602001807f47616d65206e6f7420636c6f736500000000000000000000000000000000000081525060200191505060405180910390fd5b5b600560008154809291906001019190505550600263075bcd1590806001815401808255809150506001900390600052602060002001600090919091909150556002633ade68b1908060018154018082558091505060019003906000526020600020016000909190919091505560405180608001604052806001600381111561118f57fe5b815260200142815260200182815260200160028054806020026020016040519081016040528092919081815260200182805480156111ec57602002820191906000526020600020905b8154815260200190600101908083116111d8575b505050505081525060086000600554815260200190815260200160002060008201518160000160006101000a81548160ff0219169083600381111561122d57fe5b021790555060208201518160010155604082015181600201556060820151816003019080519060200190611262929190611517565b509050506005547f8e250ad90c85e3fb4cf89f6263d08afb2c75b01e836a245dc15ee9089ac9df9642836002604051808481526020018381526020018060200182810382528381815481526020019150805480156112df57602002820191906000526020600020905b8154815260200190600101908083116112cb575b505094505050505060405180910390a250565b600160009054906101000a900473ffffffffffffffffffffffffffffffffffffffff1673ffffffffffffffffffffffffffffffffffffffff166323b872dd336000809054906101000a900473ffffffffffffffffffffffffffffffffffffffff16856040518463ffffffff1660e01b8152600401808473ffffffffffffffffffffffffffffffffffffffff1673ffffffffffffffffffffffffffffffffffffffff1681526020018373ffffffffffffffffffffffffffffffffffffffff1673ffffffffffffffffffffffffffffffffffffffff1681526020018281526020019350505050602060405180830381600087803b1580156113f057600080fd5b505af1158015611404573d6000803e3d6000fd5b505050506040513d602081101561141a57600080fd5b8101908080519060200190929190505050507f78eaebe37a28490ff43ed0e95bdc47de1587156ac0069b652e1d2d9f42464e9833838342604051808573ffffffffffffffffffffffffffffffffffffffff1673ffffffffffffffffffffffffffffffffffffffff16815260200184815260200183815260200182815260200194505050505060405180910390a15050565b600160009054906101000a900473ffffffffffffffffffffffffffffffffffffffff1681565b6000809054906101000a900473ffffffffffffffffffffffffffffffffffffffff1681565b50805460008255906000526020600020908101906115149190611564565b50565b828054828255906000526020600020908101928215611553579160200282015b82811115611552578251825591602001919060010190611537565b5b5090506115609190611564565b5090565b61158691905b8082111561158257600081600090555060010161156a565b5090565b9056fea2646970667358221220080beca3bff446b5cca1c54e569bfd99ab2e702593f0c1055435936b37fc025364736f6c63430006020033",
  "source": "// SPDX-License-Identifier: MIT\npragma solidity ^0.6.2;\n\nimport '@openzeppelin/contracts/token/ERC20/IERC20.sol';\n\ncontract PaymentProcessor {\n  address public admin; // First Account | Admin account | 0xE833C4107048BCC92C797595BBed3ecB36E2e227\n  IERC20 public dai;\n  constructor(address adminAddress, address daiAddress) public {\n    admin = adminAddress;\n    dai = IERC20(daiAddress);\n  }\n  enum Status {\n    Pending,\n    Open,\n    Close,\n    Claimable\n  }\n  struct Game {\n    Status status;\n    uint startTime;\n    uint endTime;\n    uint[] id;\n  }\n\n  struct UserSave {\n    address payable payer;\n    uint amount;\n    uint id;\n    uint gameId;\n    uint date;\n  }\n\n  struct UserStruct {\n    address payer;\n    uint amount;\n    uint codePay;\n    address index;\n  }\n\n  uint[] id;\n  address[] AddressUsers;\n  UserSave[] userSave;\n  uint public currentGameId;\n  uint public currentWinId;\n  mapping(address => UserStruct) private userStructs;\n  mapping(uint => Game) private _games;\n\n  event GameOpen(\n    uint indexed gameId,\n    uint startTime,\n    uint endTime,\n    uint[] id\n  );\n\n\n  event GameClose(\n    uint indexed gameId,\n    uint currentWinId\n  );\n\n  event PaymentDone(\n    address payer,\n    uint amount,\n    uint paymentId,\n    uint date\n  );\n\n  event PaymentTest(\n    address payer,\n    uint amount,\n    uint codePay\n  );\n\n  event UsersSend(\n    address payer,\n    address[] users,\n    uint codePay,\n    address admim\n  );\n\n  function pay(uint amount, uint paymentId) external {\n    dai.transferFrom(msg.sender, admin, amount);\n    emit PaymentDone(msg.sender, amount, paymentId, block.timestamp);\n  }\n\n  function clearContract() external {\n    delete userStructs[msg.sender];\n    delete AddressUsers;\n    currentGameId++;\n  }\n\n  function isUser(address addressUser) public returns (bool isIndeed) {\n    if (AddressUsers.length == 0) return false;\n    if (userStructs[addressUser].index == addressUser) return true;\n    return false;\n  }\n\n  function startGame(\n    uint _endTimeSec\n  ) external {\n    if (currentGameId > 0) {\n      require(_games[currentGameId].status == Status.Close, \"Game not close\");\n    }\n    currentGameId++;\n    id.push(123456789);\n    id.push(987654321);\n\n    _games[currentGameId] = Game({\n    status : Status.Open,\n    startTime : block.timestamp,\n    endTime : _endTimeSec,\n    id : id\n    });\n    emit GameOpen(currentGameId, block.timestamp, _endTimeSec, id);\n  }\n\n  function payGame(uint amount, uint idUser) external {\n    require(_games[currentGameId].status == Status.Open, \"Game not open\");\n    //    msg.sender.send();\n    dai.transferFrom(msg.sender, address(this), amount);\n    //    dai.transferFrom(msg.sender, admin, amount);\n    userSave.push(UserSave({\n    payer : msg.sender,\n    amount : amount,\n    id : idUser,\n    gameId: currentGameId,\n    date : block.timestamp\n    }));\n    emit PaymentDone(msg.sender, amount, idUser, block.timestamp);\n  }\n\n  function closeGame() external {\n    require(_games[currentGameId].status == Status.Open, \"Game not open\");\n    require(block.timestamp > _games[currentGameId].endTime, \"Game not over\");\n\n    _games[currentGameId].status = Status.Close;\n    currentWinId = 123456789;\n\n    for (uint i = 0; i < userSave.length; i++) {\n      if (userSave[i].id == currentWinId && userSave[i].gameId == currentGameId) {\n        uint amount10;\n        //        dai.approve(admin, userSave[i].amount);\n        //        dai.transferFrom(admin, userSave[i].payer, userSave[i].amount);\n        amount10 = userSave[i].amount + (userSave[i].amount/100*10);\n        dai.approve(address(this), amount10);\n        dai.transferFrom(address(this), userSave[i].payer, amount10);\n\n\n        //        address(userSave[i].payer).transfer(userSave[i].amount);\n        //        dai.transfer(userSave[i].payer, userSave[i].amount);\n        //        admin.transfer(userSave[i].payer, userSave[i].amount);\n        //        dai.balanceOf()\n        //        userSave[i].payer.transfer(userSave[i].amount);\n        //        userSave[i].payer.send(userSave[i].amount);\n\n      }\n\n    }\n\n    emit GameClose(currentGameId, currentWinId);\n  }\n\n\n  function saveUser(uint amount, uint codePay) external {\n    if (isUser(msg.sender)) return;\n    userStructs[msg.sender].payer = msg.sender;\n    userStructs[msg.sender].amount = amount;\n    userStructs[msg.sender].codePay = codePay;\n    userStructs[msg.sender].index = msg.sender;\n    AddressUsers.push(msg.sender);\n    //    dai.transferFrom(admin, msg.sender, 100000000000000000000);\n    emit PaymentTest(msg.sender, amount, codePay);\n  }\n\n  function sendUsers() external {\n    emit UsersSend(msg.sender, AddressUsers, userStructs[msg.sender].codePay, admin);\n  }\n}",
  "sourcePath": "/home/user/WebstormProjects/blockchain/contracts/PaymentProcessor.sol",
  "compiler": {
    "name": "solc",
    "version": "0.6.2+commit.bacdbe57.Emscripten.clang"
  },
  "schemaVersion": "3.4.3",
  "updatedAt": "2021-11-15T15:18:15.373Z",
  "networkType": "ethereum",
  "devdoc": {
    "methods": {}
  },
  "userdoc": {
    "methods": {}
  }
}